{
  "_format": "hh-sol-artifact-1",
  "contractName": "CollectionFactory",
  "sourceName": "contracts/CollectionFactory.sol",
  "abi": [
    {
      "inputs": [],
      "stateMutability": "nonpayable",
      "type": "constructor"
    },
    {
      "anonymous": false,
      "inputs": [
        {
          "indexed": false,
          "internalType": "address",
          "name": "collection",
          "type": "address"
        },
        {
          "indexed": false,
          "internalType": "string",
          "name": "name",
          "type": "string"
        },
        {
          "indexed": false,
          "internalType": "string",
          "name": "symbol",
          "type": "string"
        }
      ],
      "name": "CollectionCreated",
      "type": "event"
    },
    {
      "anonymous": false,
      "inputs": [
        {
          "indexed": false,
          "internalType": "address",
          "name": "collection",
          "type": "address"
        },
        {
          "indexed": false,
          "internalType": "address",
          "name": "recipient",
          "type": "address"
        },
        {
          "indexed": false,
          "internalType": "uint256",
          "name": "tokenId",
          "type": "uint256"
        },
        {
          "indexed": false,
          "internalType": "string",
          "name": "tokenUri",
          "type": "string"
        }
      ],
      "name": "TokenMinted",
      "type": "event"
    },
    {
      "inputs": [
        {
          "internalType": "uint256",
          "name": "",
          "type": "uint256"
        }
      ],
      "name": "collections",
      "outputs": [
        {
          "internalType": "contract Collection",
          "name": "",
          "type": "address"
        }
      ],
      "stateMutability": "view",
      "type": "function"
    },
    {
      "inputs": [
        {
          "internalType": "string",
          "name": "name",
          "type": "string"
        },
        {
          "internalType": "string",
          "name": "symbol",
          "type": "string"
        }
      ],
      "name": "createCollection",
      "outputs": [],
      "stateMutability": "nonpayable",
      "type": "function"
    },
    {
      "inputs": [
        {
          "internalType": "address",
          "name": "collection",
          "type": "address"
        },
        {
          "internalType": "address",
          "name": "to",
          "type": "address"
        },
        {
          "internalType": "uint256",
          "name": "tokenId",
          "type": "uint256"
        },
        {
          "internalType": "string",
          "name": "uri",
          "type": "string"
        }
      ],
      "name": "mintNFT",
      "outputs": [],
      "stateMutability": "nonpayable",
      "type": "function"
    }
  ],
  "bytecode": "0x608060405234801561001057600080fd5b50613174806100206000396000f3fe60806040523480156200001157600080fd5b5060043610620000465760003560e01c8063176b9b75146200004b578063c6a3da26146200006b578063fdbda0ec146200008b575b600080fd5b62000069600480360381019062000063919062000421565b620000c1565b005b62000089600480360381019062000083919062000546565b620001a5565b005b620000a96004803603810190620000a39190620005d7565b6200025d565b604051620000b8919062000674565b60405180910390f35b60008282604051620000d3906200029d565b620000e09291906200071a565b604051809103906000f080158015620000fd573d6000803e3d6000fd5b5090506000819080600181540180825580915050600190039060005260206000200160009091909190916101000a81548173ffffffffffffffffffffffffffffffffffffffff021916908373ffffffffffffffffffffffffffffffffffffffff1602179055507f3454b57f2dca4f5a54e8358d096ac9d1a0d2dab98991ddb89ff9ea1746260617818484604051620001989392919062000766565b60405180910390a1505050565b8373ffffffffffffffffffffffffffffffffffffffff1663d3fc98648484846040518463ffffffff1660e01b8152600401620001e493929190620007c2565b600060405180830381600087803b158015620001ff57600080fd5b505af115801562000214573d6000803e3d6000fd5b505050507fc9fee7cd4889f66f10ff8117316524260a5242e88e25e0656dfb3f4196a21917848484846040516200024f949392919062000806565b60405180910390a150505050565b600081815481106200026e57600080fd5b906000526020600020016000915054906101000a900473ffffffffffffffffffffffffffffffffffffffff1681565b6128e4806200085b83390190565b6000604051905090565b600080fd5b600080fd5b600080fd5b600080fd5b6000601f19601f8301169050919050565b7f4e487b7100000000000000000000000000000000000000000000000000000000600052604160045260246000fd5b6200031482620002c9565b810181811067ffffffffffffffff82111715620003365762000335620002da565b5b80604052505050565b60006200034b620002ab565b905062000359828262000309565b919050565b600067ffffffffffffffff8211156200037c576200037b620002da565b5b6200038782620002c9565b9050602081019050919050565b82818337600083830152505050565b6000620003ba620003b4846200035e565b6200033f565b905082815260208101848484011115620003d957620003d8620002c4565b5b620003e684828562000394565b509392505050565b600082601f830112620004065762000405620002bf565b5b813562000418848260208601620003a3565b91505092915050565b600080604083850312156200043b576200043a620002b5565b5b600083013567ffffffffffffffff8111156200045c576200045b620002ba565b5b6200046a85828601620003ee565b925050602083013567ffffffffffffffff8111156200048e576200048d620002ba565b5b6200049c85828601620003ee565b9150509250929050565b600073ffffffffffffffffffffffffffffffffffffffff82169050919050565b6000620004d382620004a6565b9050919050565b620004e581620004c6565b8114620004f157600080fd5b50565b6000813590506200050581620004da565b92915050565b6000819050919050565b62000520816200050b565b81146200052c57600080fd5b50565b600081359050620005408162000515565b92915050565b60008060008060808587031215620005635762000562620002b5565b5b60006200057387828801620004f4565b94505060206200058687828801620004f4565b935050604062000599878288016200052f565b925050606085013567ffffffffffffffff811115620005bd57620005bc620002ba565b5b620005cb87828801620003ee565b91505092959194509250565b600060208284031215620005f057620005ef620002b5565b5b600062000600848285016200052f565b91505092915050565b6000819050919050565b6000620006346200062e6200062884620004a6565b62000609565b620004a6565b9050919050565b6000620006488262000613565b9050919050565b60006200065c826200063b565b9050919050565b6200066e816200064f565b82525050565b60006020820190506200068b600083018462000663565b92915050565b600081519050919050565b600082825260208201905092915050565b60005b83811015620006cd578082015181840152602081019050620006b0565b60008484015250505050565b6000620006e68262000691565b620006f281856200069c565b935062000704818560208601620006ad565b6200070f81620002c9565b840191505092915050565b60006040820190508181036000830152620007368185620006d9565b905081810360208301526200074c8184620006d9565b90509392505050565b6200076081620004c6565b82525050565b60006060820190506200077d600083018662000755565b8181036020830152620007918185620006d9565b90508181036040830152620007a78184620006d9565b9050949350505050565b620007bc816200050b565b82525050565b6000606082019050620007d9600083018662000755565b620007e86020830185620007b1565b8181036040830152620007fc8184620006d9565b9050949350505050565b60006080820190506200081d600083018762000755565b6200082c602083018662000755565b6200083b6040830185620007b1565b81810360608301526200084f8184620006d9565b90509594505050505056fe60806040523480156200001157600080fd5b50604051620028e4380380620028e48339818101604052810190620000379190620001fa565b818181600090816200004a9190620004ca565b5080600190816200005c9190620004ca565b5050505050620005b1565b6000604051905090565b600080fd5b600080fd5b600080fd5b600080fd5b6000601f19601f8301169050919050565b7f4e487b7100000000000000000000000000000000000000000000000000000000600052604160045260246000fd5b620000d08262000085565b810181811067ffffffffffffffff82111715620000f257620000f162000096565b5b80604052505050565b60006200010762000067565b9050620001158282620000c5565b919050565b600067ffffffffffffffff82111562000138576200013762000096565b5b620001438262000085565b9050602081019050919050565b60005b838110156200017057808201518184015260208101905062000153565b60008484015250505050565b6000620001936200018d846200011a565b620000fb565b905082815260208101848484011115620001b257620001b162000080565b5b620001bf84828562000150565b509392505050565b600082601f830112620001df57620001de6200007b565b5b8151620001f18482602086016200017c565b91505092915050565b6000806040838503121562000214576200021362000071565b5b600083015167ffffffffffffffff81111562000235576200023462000076565b5b6200024385828601620001c7565b925050602083015167ffffffffffffffff81111562000267576200026662000076565b5b6200027585828601620001c7565b9150509250929050565b600081519050919050565b7f4e487b7100000000000000000000000000000000000000000000000000000000600052602260045260246000fd5b60006002820490506001821680620002d257607f821691505b602082108103620002e857620002e76200028a565b5b50919050565b60008190508160005260206000209050919050565b60006020601f8301049050919050565b600082821b905092915050565b600060088302620003527fffffffffffffffffffffffffffffffffffffffffffffffffffffffffffffffff8262000313565b6200035e868362000313565b95508019841693508086168417925050509392505050565b6000819050919050565b6000819050919050565b6000620003ab620003a56200039f8462000376565b62000380565b62000376565b9050919050565b6000819050919050565b620003c7836200038a565b620003df620003d682620003b2565b84845462000320565b825550505050565b600090565b620003f6620003e7565b62000403818484620003bc565b505050565b5b818110156200042b576200041f600082620003ec565b60018101905062000409565b5050565b601f8211156200047a576200044481620002ee565b6200044f8462000303565b810160208510156200045f578190505b620004776200046e8562000303565b83018262000408565b50505b505050565b600082821c905092915050565b60006200049f600019846008026200047f565b1980831691505092915050565b6000620004ba83836200048c565b9150826002028217905092915050565b620004d5826200027f565b67ffffffffffffffff811115620004f157620004f062000096565b5b620004fd8254620002b9565b6200050a8282856200042f565b600060209050601f8311600181146200054257600084156200052d578287015190505b620005398582620004ac565b865550620005a9565b601f1984166200055286620002ee565b60005b828110156200057c5784890151825560018201915060208501945060208101905062000555565b868310156200059c578489015162000598601f8916826200048c565b8355505b6001600288020188555050505b505050505050565b61232380620005c16000396000f3fe608060405234801561001057600080fd5b50600436106100ea5760003560e01c806370a082311161008c578063b88d4fde11610066578063b88d4fde1461025b578063c87b56dd14610277578063d3fc9864146102a7578063e985e9c5146102c3576100ea565b806370a08231146101f157806395d89b4114610221578063a22cb4651461023f576100ea565b8063095ea7b3116100c8578063095ea7b31461016d57806323b872dd1461018957806342842e0e146101a55780636352211e146101c1576100ea565b806301ffc9a7146100ef57806306fdde031461011f578063081812fc1461013d575b600080fd5b610109600480360381019061010491906117df565b6102f3565b6040516101169190611827565b60405180910390f35b610127610354565b60405161013491906118d2565b60405180910390f35b6101576004803603810190610152919061192a565b6103e6565b6040516101649190611998565b60405180910390f35b610187600480360381019061018291906119df565b610402565b005b6101a3600480360381019061019e9190611a1f565b610418565b005b6101bf60048036038101906101ba9190611a1f565b61051a565b005b6101db60048036038101906101d6919061192a565b61053a565b6040516101e89190611998565b60405180910390f35b61020b60048036038101906102069190611a72565b61054c565b6040516102189190611aae565b60405180910390f35b610229610606565b60405161023691906118d2565b60405180910390f35b61025960048036038101906102549190611af5565b610698565b005b61027560048036038101906102709190611c6a565b6106ae565b005b610291600480360381019061028c919061192a565b6106cb565b60405161029e91906118d2565b60405180910390f35b6102c160048036038101906102bc9190611d8e565b6107de565b005b6102dd60048036038101906102d89190611dfd565b6107f7565b6040516102ea9190611827565b60405180910390f35b6000634906490660e01b7bffffffffffffffffffffffffffffffffffffffffffffffffffffffff1916827bffffffffffffffffffffffffffffffffffffffffffffffffffffffff1916148061034d575061034c8261088b565b5b9050919050565b60606000805461036390611e6c565b80601f016020809104026020016040519081016040528092919081815260200182805461038f90611e6c565b80156103dc5780601f106103b1576101008083540402835291602001916103dc565b820191906000526020600020905b8154815290600101906020018083116103bf57829003601f168201915b5050505050905090565b60006103f18261096d565b506103fb826109f5565b9050919050565b610414828261040f610a32565b610a3a565b5050565b600073ffffffffffffffffffffffffffffffffffffffff168273ffffffffffffffffffffffffffffffffffffffff160361048a5760006040517f64a0ae920000000000000000000000000000000000000000000000000000000081526004016104819190611998565b60405180910390fd5b600061049e8383610499610a32565b610a4c565b90508373ffffffffffffffffffffffffffffffffffffffff168173ffffffffffffffffffffffffffffffffffffffff1614610514578382826040517f64283d7b00000000000000000000000000000000000000000000000000000000815260040161050b93929190611e9d565b60405180910390fd5b50505050565b610535838383604051806020016040528060008152506106ae565b505050565b60006105458261096d565b9050919050565b60008073ffffffffffffffffffffffffffffffffffffffff168273ffffffffffffffffffffffffffffffffffffffff16036105bf5760006040517f89c62b640000000000000000000000000000000000000000000000000000000081526004016105b69190611998565b60405180910390fd5b600360008373ffffffffffffffffffffffffffffffffffffffff1673ffffffffffffffffffffffffffffffffffffffff168152602001908152602001600020549050919050565b60606001805461061590611e6c565b80601f016020809104026020016040519081016040528092919081815260200182805461064190611e6c565b801561068e5780601f106106635761010080835404028352916020019161068e565b820191906000526020600020905b81548152906001019060200180831161067157829003601f168201915b5050505050905090565b6106aa6106a3610a32565b8383610c66565b5050565b6106b9848484610418565b6106c584848484610dd5565b50505050565b60606106d68261096d565b5060006006600084815260200190815260200160002080546106f790611e6c565b80601f016020809104026020016040519081016040528092919081815260200182805461072390611e6c565b80156107705780601f1061074557610100808354040283529160200191610770565b820191906000526020600020905b81548152906001019060200180831161075357829003601f168201915b505050505090506000610781610f8c565b905060008151036107965781925050506107d9565b6000825111156107cb5780826040516020016107b3929190611f10565b604051602081830303815290604052925050506107d9565b6107d484610fa3565b925050505b919050565b6107e8838361100c565b6107f28282611105565b505050565b6000600560008473ffffffffffffffffffffffffffffffffffffffff1673ffffffffffffffffffffffffffffffffffffffff16815260200190815260200160002060008373ffffffffffffffffffffffffffffffffffffffff1673ffffffffffffffffffffffffffffffffffffffff16815260200190815260200160002060009054906101000a900460ff16905092915050565b60007f80ac58cd000000000000000000000000000000000000000000000000000000007bffffffffffffffffffffffffffffffffffffffffffffffffffffffff1916827bffffffffffffffffffffffffffffffffffffffffffffffffffffffff1916148061095657507f5b5e139f000000000000000000000000000000000000000000000000000000007bffffffffffffffffffffffffffffffffffffffffffffffffffffffff1916827bffffffffffffffffffffffffffffffffffffffffffffffffffffffff1916145b80610966575061096582611161565b5b9050919050565b600080610979836111cb565b9050600073ffffffffffffffffffffffffffffffffffffffff168173ffffffffffffffffffffffffffffffffffffffff16036109ec57826040517f7e2732890000000000000000000000000000000000000000000000000000000081526004016109e39190611aae565b60405180910390fd5b80915050919050565b60006004600083815260200190815260200160002060009054906101000a900473ffffffffffffffffffffffffffffffffffffffff169050919050565b600033905090565b610a478383836001611208565b505050565b600080610a58846111cb565b9050600073ffffffffffffffffffffffffffffffffffffffff168373ffffffffffffffffffffffffffffffffffffffff1614610a9a57610a998184866113cd565b5b600073ffffffffffffffffffffffffffffffffffffffff168173ffffffffffffffffffffffffffffffffffffffff1614610b2b57610adc600085600080611208565b6001600360008373ffffffffffffffffffffffffffffffffffffffff1673ffffffffffffffffffffffffffffffffffffffff168152602001908152602001600020600082825403925050819055505b600073ffffffffffffffffffffffffffffffffffffffff168573ffffffffffffffffffffffffffffffffffffffff1614610bae576001600360008773ffffffffffffffffffffffffffffffffffffffff1673ffffffffffffffffffffffffffffffffffffffff168152602001908152602001600020600082825401925050819055505b846002600086815260200190815260200160002060006101000a81548173ffffffffffffffffffffffffffffffffffffffff021916908373ffffffffffffffffffffffffffffffffffffffff160217905550838573ffffffffffffffffffffffffffffffffffffffff168273ffffffffffffffffffffffffffffffffffffffff167fddf252ad1be2c89b69c2b068fc378daa952ba7f163c4a11628f55a4df523b3ef60405160405180910390a4809150509392505050565b600073ffffffffffffffffffffffffffffffffffffffff168273ffffffffffffffffffffffffffffffffffffffff1603610cd757816040517f5b08ba18000000000000000000000000000000000000000000000000000000008152600401610cce9190611998565b60405180910390fd5b80600560008573ffffffffffffffffffffffffffffffffffffffff1673ffffffffffffffffffffffffffffffffffffffff16815260200190815260200160002060008473ffffffffffffffffffffffffffffffffffffffff1673ffffffffffffffffffffffffffffffffffffffff16815260200190815260200160002060006101000a81548160ff0219169083151502179055508173ffffffffffffffffffffffffffffffffffffffff168373ffffffffffffffffffffffffffffffffffffffff167f17307eab39ab6107e8899845ad3d59bd9653f200f220920489ca2b5937696c3183604051610dc89190611827565b60405180910390a3505050565b60008373ffffffffffffffffffffffffffffffffffffffff163b1115610f86578273ffffffffffffffffffffffffffffffffffffffff1663150b7a02610e19610a32565b8685856040518563ffffffff1660e01b8152600401610e3b9493929190611f89565b6020604051808303816000875af1925050508015610e7757506040513d601f19601f82011682018060405250810190610e749190611fea565b60015b610efb573d8060008114610ea7576040519150601f19603f3d011682016040523d82523d6000602084013e610eac565b606091505b506000815103610ef357836040517f64a0ae92000000000000000000000000000000000000000000000000000000008152600401610eea9190611998565b60405180910390fd5b805181602001fd5b63150b7a0260e01b7bffffffffffffffffffffffffffffffffffffffffffffffffffffffff1916817bffffffffffffffffffffffffffffffffffffffffffffffffffffffff191614610f8457836040517f64a0ae92000000000000000000000000000000000000000000000000000000008152600401610f7b9190611998565b60405180910390fd5b505b50505050565b606060405180602001604052806000815250905090565b6060610fae8261096d565b506000610fb9610f8c565b90506000815111610fd95760405180602001604052806000815250611004565b80610fe384611491565b604051602001610ff4929190611f10565b6040516020818303038152906040525b915050919050565b600073ffffffffffffffffffffffffffffffffffffffff168273ffffffffffffffffffffffffffffffffffffffff160361107e5760006040517f64a0ae920000000000000000000000000000000000000000000000000000000081526004016110759190611998565b60405180910390fd5b600061108c83836000610a4c565b9050600073ffffffffffffffffffffffffffffffffffffffff168173ffffffffffffffffffffffffffffffffffffffff16146111005760006040517f73c6ac6e0000000000000000000000000000000000000000000000000000000081526004016110f79190611998565b60405180910390fd5b505050565b8060066000848152602001908152602001600020908161112591906121c3565b507ff8e1a15aba9398e019f0b49df1a4fde98ee17ae345cb5f6b5e2c27f5033e8ce7826040516111559190611aae565b60405180910390a15050565b60007f01ffc9a7000000000000000000000000000000000000000000000000000000007bffffffffffffffffffffffffffffffffffffffffffffffffffffffff1916827bffffffffffffffffffffffffffffffffffffffffffffffffffffffff1916149050919050565b60006002600083815260200190815260200160002060009054906101000a900473ffffffffffffffffffffffffffffffffffffffff169050919050565b80806112415750600073ffffffffffffffffffffffffffffffffffffffff168273ffffffffffffffffffffffffffffffffffffffff1614155b156113755760006112518461096d565b9050600073ffffffffffffffffffffffffffffffffffffffff168373ffffffffffffffffffffffffffffffffffffffff16141580156112bc57508273ffffffffffffffffffffffffffffffffffffffff168173ffffffffffffffffffffffffffffffffffffffff1614155b80156112cf57506112cd81846107f7565b155b1561131157826040517fa9fbf51f0000000000000000000000000000000000000000000000000000000081526004016113089190611998565b60405180910390fd5b811561137357838573ffffffffffffffffffffffffffffffffffffffff168273ffffffffffffffffffffffffffffffffffffffff167f8c5be1e5ebec7d5bd14f71427d1e84f3dd0314c0f7b2291e5b200ac8c7c3b92560405160405180910390a45b505b836004600085815260200190815260200160002060006101000a81548173ffffffffffffffffffffffffffffffffffffffff021916908373ffffffffffffffffffffffffffffffffffffffff16021790555050505050565b6113d883838361155f565b61148c57600073ffffffffffffffffffffffffffffffffffffffff168373ffffffffffffffffffffffffffffffffffffffff160361144d57806040517f7e2732890000000000000000000000000000000000000000000000000000000081526004016114449190611aae565b60405180910390fd5b81816040517f177e802f000000000000000000000000000000000000000000000000000000008152600401611483929190612295565b60405180910390fd5b505050565b6060600060016114a084611620565b01905060008167ffffffffffffffff8111156114bf576114be611b3f565b5b6040519080825280601f01601f1916602001820160405280156114f15781602001600182028036833780820191505090505b509050600082602001820190505b600115611554578080600190039150507f3031323334353637383961626364656600000000000000000000000000000000600a86061a8153600a8581611548576115476122be565b5b049450600085036114ff575b819350505050919050565b60008073ffffffffffffffffffffffffffffffffffffffff168373ffffffffffffffffffffffffffffffffffffffff161415801561161757508273ffffffffffffffffffffffffffffffffffffffff168473ffffffffffffffffffffffffffffffffffffffff1614806115d857506115d784846107f7565b5b8061161657508273ffffffffffffffffffffffffffffffffffffffff166115fe836109f5565b73ffffffffffffffffffffffffffffffffffffffff16145b5b90509392505050565b600080600090507a184f03e93ff9f4daa797ed6e38ed64bf6a1f010000000000000000831061167e577a184f03e93ff9f4daa797ed6e38ed64bf6a1f0100000000000000008381611674576116736122be565b5b0492506040810190505b6d04ee2d6d415b85acef810000000083106116bb576d04ee2d6d415b85acef810000000083816116b1576116b06122be565b5b0492506020810190505b662386f26fc1000083106116ea57662386f26fc1000083816116e0576116df6122be565b5b0492506010810190505b6305f5e1008310611713576305f5e1008381611709576117086122be565b5b0492506008810190505b612710831061173857612710838161172e5761172d6122be565b5b0492506004810190505b6064831061175b5760648381611751576117506122be565b5b0492506002810190505b600a831061176a576001810190505b80915050919050565b6000604051905090565b600080fd5b600080fd5b60007fffffffff0000000000000000000000000000000000000000000000000000000082169050919050565b6117bc81611787565b81146117c757600080fd5b50565b6000813590506117d9816117b3565b92915050565b6000602082840312156117f5576117f461177d565b5b6000611803848285016117ca565b91505092915050565b60008115159050919050565b6118218161180c565b82525050565b600060208201905061183c6000830184611818565b92915050565b600081519050919050565b600082825260208201905092915050565b60005b8381101561187c578082015181840152602081019050611861565b60008484015250505050565b6000601f19601f8301169050919050565b60006118a482611842565b6118ae818561184d565b93506118be81856020860161185e565b6118c781611888565b840191505092915050565b600060208201905081810360008301526118ec8184611899565b905092915050565b6000819050919050565b611907816118f4565b811461191257600080fd5b50565b600081359050611924816118fe565b92915050565b6000602082840312156119405761193f61177d565b5b600061194e84828501611915565b91505092915050565b600073ffffffffffffffffffffffffffffffffffffffff82169050919050565b600061198282611957565b9050919050565b61199281611977565b82525050565b60006020820190506119ad6000830184611989565b92915050565b6119bc81611977565b81146119c757600080fd5b50565b6000813590506119d9816119b3565b92915050565b600080604083850312156119f6576119f561177d565b5b6000611a04858286016119ca565b9250506020611a1585828601611915565b9150509250929050565b600080600060608486031215611a3857611a3761177d565b5b6000611a46868287016119ca565b9350506020611a57868287016119ca565b9250506040611a6886828701611915565b9150509250925092565b600060208284031215611a8857611a8761177d565b5b6000611a96848285016119ca565b91505092915050565b611aa8816118f4565b82525050565b6000602082019050611ac36000830184611a9f565b92915050565b611ad28161180c565b8114611add57600080fd5b50565b600081359050611aef81611ac9565b92915050565b60008060408385031215611b0c57611b0b61177d565b5b6000611b1a858286016119ca565b9250506020611b2b85828601611ae0565b9150509250929050565b600080fd5b600080fd5b7f4e487b7100000000000000000000000000000000000000000000000000000000600052604160045260246000fd5b611b7782611888565b810181811067ffffffffffffffff82111715611b9657611b95611b3f565b5b80604052505050565b6000611ba9611773565b9050611bb58282611b6e565b919050565b600067ffffffffffffffff821115611bd557611bd4611b3f565b5b611bde82611888565b9050602081019050919050565b82818337600083830152505050565b6000611c0d611c0884611bba565b611b9f565b905082815260208101848484011115611c2957611c28611b3a565b5b611c34848285611beb565b509392505050565b600082601f830112611c5157611c50611b35565b5b8135611c61848260208601611bfa565b91505092915050565b60008060008060808587031215611c8457611c8361177d565b5b6000611c92878288016119ca565b9450506020611ca3878288016119ca565b9350506040611cb487828801611915565b925050606085013567ffffffffffffffff811115611cd557611cd4611782565b5b611ce187828801611c3c565b91505092959194509250565b600067ffffffffffffffff821115611d0857611d07611b3f565b5b611d1182611888565b9050602081019050919050565b6000611d31611d2c84611ced565b611b9f565b905082815260208101848484011115611d4d57611d4c611b3a565b5b611d58848285611beb565b509392505050565b600082601f830112611d7557611d74611b35565b5b8135611d85848260208601611d1e565b91505092915050565b600080600060608486031215611da757611da661177d565b5b6000611db5868287016119ca565b9350506020611dc686828701611915565b925050604084013567ffffffffffffffff811115611de757611de6611782565b5b611df386828701611d60565b9150509250925092565b60008060408385031215611e1457611e1361177d565b5b6000611e22858286016119ca565b9250506020611e33858286016119ca565b9150509250929050565b7f4e487b7100000000000000000000000000000000000000000000000000000000600052602260045260246000fd5b60006002820490506001821680611e8457607f821691505b602082108103611e9757611e96611e3d565b5b50919050565b6000606082019050611eb26000830186611989565b611ebf6020830185611a9f565b611ecc6040830184611989565b949350505050565b600081905092915050565b6000611eea82611842565b611ef48185611ed4565b9350611f0481856020860161185e565b80840191505092915050565b6000611f1c8285611edf565b9150611f288284611edf565b91508190509392505050565b600081519050919050565b600082825260208201905092915050565b6000611f5b82611f34565b611f658185611f3f565b9350611f7581856020860161185e565b611f7e81611888565b840191505092915050565b6000608082019050611f9e6000830187611989565b611fab6020830186611989565b611fb86040830185611a9f565b8181036060830152611fca8184611f50565b905095945050505050565b600081519050611fe4816117b3565b92915050565b60006020828403121561200057611fff61177d565b5b600061200e84828501611fd5565b91505092915050565b60008190508160005260206000209050919050565b60006020601f8301049050919050565b600082821b905092915050565b6000600883026120797fffffffffffffffffffffffffffffffffffffffffffffffffffffffffffffffff8261203c565b612083868361203c565b95508019841693508086168417925050509392505050565b6000819050919050565b60006120c06120bb6120b6846118f4565b61209b565b6118f4565b9050919050565b6000819050919050565b6120da836120a5565b6120ee6120e6826120c7565b848454612049565b825550505050565b600090565b6121036120f6565b61210e8184846120d1565b505050565b5b81811015612132576121276000826120fb565b600181019050612114565b5050565b601f8211156121775761214881612017565b6121518461202c565b81016020851015612160578190505b61217461216c8561202c565b830182612113565b50505b505050565b600082821c905092915050565b600061219a6000198460080261217c565b1980831691505092915050565b60006121b38383612189565b9150826002028217905092915050565b6121cc82611842565b67ffffffffffffffff8111156121e5576121e4611b3f565b5b6121ef8254611e6c565b6121fa828285612136565b600060209050601f83116001811461222d576000841561221b578287015190505b61222585826121a7565b86555061228d565b601f19841661223b86612017565b60005b828110156122635784890151825560018201915060208501945060208101905061223e565b86831015612280578489015161227c601f891682612189565b8355505b6001600288020188555050505b505050505050565b60006040820190506122aa6000830185611989565b6122b76020830184611a9f565b9392505050565b7f4e487b7100000000000000000000000000000000000000000000000000000000600052601260045260246000fdfea2646970667358221220a52587c464ef9a4a6970c92cc03a1a4753a3dcee41d0614204ae43d9fdde0a3e64736f6c63430008180033a2646970667358221220a2b950d65aff96ca5dd323a27411446952165b689deda0c247cc2de7957ff0db64736f6c63430008180033",
  "linkReferences": {},
  "deployedLinkReferences": {}
}